:0800000084C0FECFFDCFFCCF50
:10000800FBCFFACFF9CFF8CFF7CFF6CFF5CFF4CFB4
:10001800F3CFF2CFF1CFF0CFEFCFEECFEDCFECCFE4
:10002800EBCF1027E80364000A000100001000016C
:1000380010000100010000CC8C4600068D4600002F
:1000480000000000506C6561736520707265737301
:100058002027412700746F206C6F636B0053746115
:100068007274696E6700756E6C6F636B6564007798
:10007800726F6E672070617373776F726400656E5C
:10008800746572207527722070617373002D2D2D91
:100098002D2D454C532031382D2D2D2D2D000100AF
:1000A8002D4E414E00494E4600008000C00094008D
:1000B800D400010002003C0004003E013E000400A0
:1000C800420142001100E0004C000800F1005D0010
:1000D8000900F9006500090002016E000F000B011C
:1000E80077000F001A01860011002901950006000B
:1000F8000400460001005C01A60007006001B20090
:100108000000F894EE27ECBBF1E0FBBFEBBFE5BFC6
:10011800F8E1F1BDE1BD8DE0A2E0BB27ED938A9542
:10012800E9F780E092E0A0E6ED930197E9F7EAEBC2
:10013800F0E085919591009761F0A591B5910590B2
:100148001590BF01F00105900D920197E1F7FB01B1
:10015800F0CFEFE5EDBFE2E0EEBFC0EED0E01BC1AF
:100168008820E9F480D27FD225D2E0EEF0E07ED27A
:100178007AD2E1E0EA931ED2E1EFF0E077D279D2C9
:1001880087990CC0E1E08E2E909A10D26CD26BD277
:1001980011D2E9EFF0E06AD273D208D2E1CF089524
:1001A800E0913E01F0913F01609140017091410161
:1001B8006CD20E2EE0914201F0914301609144010E
:1001C8007091450162D2E02961F1F0D14CD24BD255
:1001D800F1D1E2E0F1E04AD253D2662477245FD22B
:1001E80044F4C39A61D2C398E3E1F0E062D264D2E6
:1001F800F6CFE8E8F3E15DD26624772450D244F4E0
:10020800C39A5ED2C398E2E1F0E053D255D2F6CF5A
:10021800E8E8F3E14ED257D2442455249098882434
:1002280029C0C4D120D21FD2C5D1EBE0F1E01ED243
:10023800E4ECF9E03ED247D2F20131962F01E3E037
:10024800F0E0E415F505A1F4D89A66247724E4E1F2
:10025800F0E06E167F0654F4D99AE4EFF1E029D263
:10026800D998E4EFF1E025D227D2F1CFD89802C08F
:10027800E1E08E2E0895E1E0E91541F42FD2AAE3DA
:10028800B1E0FF27662777276ED3C5D4E2E09E1634
:1002980018F0E8E0E91508F410C026D22ED2DF01E4
:1002A800CB011CD230D231D298D3E0933A01F093EB
:1002B8003B0160933C0170933D010895D4D1D3D1A3
:1002C80079D1EAE1F1E0D2D1E7EF22D2879903C0F0
:1002D80023D2A1E027D2869903C01ED2A4E022D25D
:1002E800859903C019D2A7E01DD2849903C05ED1B5
:1002F800EAD11DD2EBEF0CD2879903C00DD2A2E050
:1003080011D2869903C008D2A5E00CD2859903C002
:1003180003D2A8E007D2849903C0FED1A0E002D29C
:10032800EDEFF6D1879903C0F7D1A3E0FBD1869909
:1003380003C0F2D1A6E0F6D1859903C0EDD1A9E0BA
:10034800F1D1849BF4D195D1879BF1D1869BEFD1D4
:10035800859903C0B8D12AD1EAD1849902C020DF97
:10036800E6D10895C1D178D4ACF4E0913A01F09186
:100378003B0160913C0170913D015CD474D1E6E48D
:10038800F1E0D8D120D06FD1E1E0EA9313D1E6E4CF
:10039800F1E06CD10895D09AD19AEFEFE2BBEFE08B
:1003A800E1BBBB9AE0E8E8B9E0E0E0BFDBD0E9E216
:1003B800F1E05CD1ECEDF5E07CD1F8D0D1DE7EDF68
:1003C800D1DFFCCFFFCF2497E0E0E883E983EA831D
:1003D800EFE3EB8347D4EB85FC85EF3FAFEFFA07FC
:1003E80031F4ABD1E8EAF0E0A5D132D179C0EF3FE2
:1003F800AFE7FA0731F4A1D1E9EAF0E09BD128D1BF
:100408006FC0AC85AA2332F49BD141D29ED1A2D130
:10041800EDE2EC93A885A73010F0E6E0E8871885B0
:10042800E12F1150E03021F09CD1A0D1A5D1F8CF17
:10043800A8D1D3D28AD110E0E0E0F0E060E87FE311
:100448009BD19FD1ADD368F08CD157D195D11F5F87
:10045800173230F072D1EDEAF0E06CD1F9D040C03B
:10046800F0CF103021F476D1E0E3EC931CC0E12FFB
:100478001150E030C1F075D179D1A0E0B0E080E052
:100488009FE3ABD2D7D3D4D077D17BD144D332D268
:100498000E2F60D17FD165D138D1EFD280D1CFD3A3
:1004A80095D253D1E4CFE885E030B1F053D1EEE2F4
:1004B800EC93E885E150E887EF5F71F070D11DD1CA
:1004C80044D13ED117D20E2F45D164D168D11DD168
:1004D800B6D37CD23AD1EDCFAE81BF81E0E0EC93C8
:1004E800C4D32D960895BED310E000E077D11E2F17
:1004F800113081F4EEE4EA93A5D10E2F20FE03C05B
:10050800EA81E86002C0EA81E77FEA83EA939AD148
:100518000E2F73D1E02FA9D3239608951A93E4E1FF
:10052800F0E0C7D014E340D141D1EAE0F0E0C1D017
:1005380014603AD13BD1B8D0146036D137D1B4D099
:1005480014E232D133D1B0D0199108951A93E981C8
:100558002FD12CD1E981E2952BD128D1B1D0B0D0BF
:10056800188135C036D1DADFECE0EA93EFDFE6E058
:10057800EA93ECDFE0E81BC01A93E9811DD116D19C
:10058800E981E29519D112D19BD09AD018811FC068
:1005980069D300E010E014D1E03031F011D1EA93D2
:1005A800EBDF0F5F1F4FF7CF60D350C0E1E0EA9356
:1005B800CDDF0895E881A0E6B1E0A5D0EE0FFF1FDA
:1005C800AE0FBF1FEC91A981EA0FEA93BFDF229615
:1005D80008957B816A81F981E88177FB770F67FD50
:1005E8007160972F9E5781F078F0983190F4AA2780
:1005F800BB27882708948795B795A7959A95D1F72B
:10060800EA23FB23682305C0E8947727EE27FF2712
:1006180066276F77769508F4606877F9A991B9919C
:1006280089919991EA17FB076807790797FB08955D
:10063800CED000D3CEDFF9D211F4C9D007C0EEF77F
:10064800C6D0A0E0B0E080E89FE3C0D1249608952A
:10065800E991F991A991B991CD0105900D920020E8
:10066800E1F7FC010895E0E0EA930895FA93EA932C
:100678008FCFEEEFE2BBEEE1F0E0FA93EA93FBC036
:10068800E8EEF3E0FA93EA93F6C0A0913A01B0914C
:100698003B0180913C0190913D01B5D20895EAE07B
:1006A800F0E06E167F060895E1E0F0E0FA93EA9331
:1006B800E2C0FA93EA93DFC0F30131963F0108954F
:1006C800E2E0F0E0F6CF9924E0E0E0933A01E0932D
:1006D8003B01E0933C01E0933D010895E92DF0E0F2
:1006E800EE5AFE4FE0810895A0913A01B0913B0186
:1006F80080913C0190913D010895E0E0F0E060E2D6
:1007080071E4BBD10895F0E0089578D22CD1089512
:10071800E2BBEEE1F0E0CDCF9394E92DF4DFEE5AA1
:10072800FE4F0895A083A7DDECE2F1E0C2CFECE232
:10073800F1E0BFCFFA93EA930895EE81FF81FACFF3
:10074800E985FA856B857C850895E987FA876B8743
:100758007C870895AE81BF811196AE83BF831197C0
:100768000895AA81BB818C819D810895EDECFCECF4
:100778006CEC7DE382D10895EA83FB836C837D83EF
:100788000895EA81FB816C817D81A985BA858B8575
:100798009C850895E02FE05DEC93E02FB4CFA98508
:1007A800BA858B859C8508951A939DCE1B7FFCCFB7
:1007B800E07FE4601E2FF8CFE07FE5601E2FF4CFC6
:1007C800F801AA81BB81AE0FBF1FEC91089528D212
:1007D8000895A898A998A09AA19815C0A198A0983A
:1007E800EE270000999B0895989B089504D0A19A3C
:1007F80002D0A09AE1E06DE007C0A19AA09A03D0C8
:10080800A098F9DFA1986BE16A95F1F7089578E06F
:10081800A098F1DF989BFECFEEDF88949999089411
:10082800A09AF1DFEE1F7A9599F77991772311F461
:10083800A19801C0A19ADFDFA098E5DFA09ADBDFCD
:10084800A198D9CFE99178E0EE0F10F4A19801C0F2
:10085800A19AD9DFA098CFDF989BFECFCCDFA09AD2
:100868007A9591F7A198C7DFA098CDDFE1E0999933
:10087800EE27A09AC0CFE991F991309639F080ED32
:1008880097E00197F1F7A8953197C9F70895309740
:100898006040704009F070580895552342F450386C
:1008A80011F4E0FF04C03196691F791F6BF050E81E
:1008B800572711F45F93CFC05F3F31F0660F000CEC
:1008C80057956795752F08955F9300200AF0CFC05C
:1008D800C8C050E8192E1522880F991F9527550F63
:1008E800879550E8072E0522660F771F7527550F45
:1008F80067950895689401C0E8945F93F2DF7038B3
:1009080018F07F3F08F4A7C056E1571BAAF4519589
:1009180058300EF4593030F0EFEFFFEF6FEF7FE70C
:1009280077F91AC077275523B9F0EE0FFF1F661F16
:10093800771F5A95D1F710C07727583028F0EF2F36
:10094800F62F672F5850F9CF552331F076956795D4
:10095800F795E7955A95D1F700200AF441D15F91B0
:100968000895689401C0E894309760407040B1F0F1
:10097800002426F0772312F4009432D1172E7EE15A
:10098800112032F07A95EE0FFF1F661F111CF9CF68
:10099800EF2FF62F612D5F938ADF5F9108954F93B4
:1009A800AF01FD01DA01AB01BC01CA01402D012CE8
:1009B800142E4F910895EA0FFB1F681F0895E095C4
:1009C800F0956095EF5FFF4F6F4F08955F9381DF5C
:1009D800903871F150E8152604C05F937ADF90389B
:1009E80039F1703821F1572F591B2BF112F4D7DF49
:1009F800FACF583118F0AA27BB278827583028F093
:100A0800AB2FB82F88275850F9CF552329F0869552
:100A1800B795A7955A95D9F7502D512572F0CBDF88
:100A280038F46795F795E795739513F420C0B7DF09
:100A38003EDF5F910895D8F7FBCFEA1BFB0B680BED
:100A480051F010F40094BBDF662392F3EE0FFF1F02
:100A5800661F7A95CBF7EE27FF27662777275F91E2
:100A68000895EFEFFFEF6FE77FEF5F910895EFEFE6
:100A7800FFEF6FE77FE75F9108955F932ADF703894
:100A880051F3903841F301240894791F23F41CF39F
:100A980000203AF3ECCF0F921F932F933F934F937D
:100AA800112722279927689FA0018F9F302D410D7C
:100AB800591F6B9F300D411D591F8E9F27D0BF9F17
:100AC80025D06A9F23D0BE9F1DD0AF9F1BD0AE9F5D
:100AD800110D291F391F491F591FE32FF42F652FA7
:100AE800522F4F913F912F911F910F9066232AF01B
:100AF800550FEE1FFF1F661F02C073954BF2CDDE28
:100B08005F910895100D211D391F02C0200D311D60
:100B1800491F591F08955F93DCDE703821F41120B6
:100B28000AF49FCFA4CF903809F495CF01240894F4
:100B3800970B1BF4D4F30020F3CF792F1F932F9337
:100B48003F934F93112411272227332744275527F2
:100B580090E2AE17BF078607410730F0AE1BBF0B08
:100B6800860B410B089401C08894551F221F331F20
:100B7800111CAA1FBB1F881F441F9A9551F7F90122
:100B8800612D4F913F912F911F91662332F0550FA0
:100B9800EE1FFF1F661F7A9543F27FDE5F9108956F
:100BA80099239AF0772342F0971748F029F4AE1763
:100BB800BF07860720F031F0989488940895989498
:100BC800089408951894889408957723C2F797177E
:100BD80098F3A9F7EA17FB07680788F399F3ECCFAE
:100BE800F09560957095E195FF4F6F4F7F4F089591
:100BF800FE2FFF0FFF0B6F2F7F2F08956F2F660FAC
:100C0800660B762F0895EA17FB0768077907E1E076
:100C180009F0EE270895ED93FD936D937C93089565
:100C2800E881F9816A817B810895E883F9836A8381
:100C38007B8308957A936A93FA93EA930895182E1A
:100C4800862F612D192E972F712D1B2EBF2FF12D59
:100C58001A2EAE2FE12D089500240A160B06080659
:100C6800090608951A930A93089519810881089529
:00000001FF
